{"abi":[{"type":"function","name":"createTask","inputs":[{"name":"_title","type":"string","internalType":"string"}],"outputs":[],"stateMutability":"nonpayable"},{"type":"function","name":"deleteTask","inputs":[{"name":"_id","type":"uint8","internalType":"uint8"}],"outputs":[],"stateMutability":"nonpayable"},{"type":"function","name":"getAllTasks","inputs":[],"outputs":[{"name":"","type":"tuple[]","internalType":"struct Todo.Task[]","components":[{"name":"id","type":"uint8","internalType":"uint8"},{"name":"title","type":"string","internalType":"string"},{"name":"isComplete","type":"bool","internalType":"bool"},{"name":"timeCompleted","type":"uint256","internalType":"uint256"}]}],"stateMutability":"view"},{"type":"function","name":"markComplete","inputs":[{"name":"_id","type":"uint8","internalType":"uint8"}],"outputs":[],"stateMutability":"nonpayable"},{"type":"function","name":"tasks","inputs":[{"name":"","type":"uint256","internalType":"uint256"}],"outputs":[{"name":"id","type":"uint8","internalType":"uint8"},{"name":"title","type":"string","internalType":"string"},{"name":"isComplete","type":"bool","internalType":"bool"},{"name":"timeCompleted","type":"uint256","internalType":"uint256"}],"stateMutability":"view"},{"type":"function","name":"todoId","inputs":[],"outputs":[{"name":"","type":"uint8","internalType":"uint8"}],"stateMutability":"view"},{"type":"function","name":"updateTitle","inputs":[{"name":"_id","type":"uint256","internalType":"uint256"},{"name":"_title","type":"string","internalType":"string"}],"outputs":[],"stateMutability":"nonpayable"}],"bytecode":{"object":"0x6080604052348015600e575f5ffd5b506112678061001c5f395ff3fe608060405234801561000f575f5ffd5b506004361061007b575f3560e01c8063779900b411610059578063779900b4146100d557806383de1242146100f35780638d9776721461010f578063c3d081f5146101425761007b565b8063111002aa1461007f5780633beb3ac21461009b5780635786ead2146100b9575b5f5ffd5b61009960048036038101906100949190610939565b61015e565b005b6100a3610253565b6040516100b0919061099b565b60405180910390f35b6100d360048036038101906100ce91906109e7565b610265565b005b6100dd61032f565b6040516100ea9190610bf4565b60405180910390f35b61010d60048036038101906101089190610c3e565b610459565b005b61012960048036038101906101249190610c69565b610529565b6040516101399493929190610cfa565b60405180910390f35b61015c60048036038101906101579190610c3e565b610601565b005b6001805f9054906101000a900460ff166101789190610d71565b60015f6101000a81548160ff021916908360ff1602179055505f604051806080016040528060015f9054906101000a900460ff1660ff1681526020018381526020015f151581526020015f81525090505f81908060018154018082558091505060019003905f5260205f2090600402015f909190919091505f820151815f015f6101000a81548160ff021916908360ff16021790555060208201518160010190816102239190610fb3565b506040820151816002015f6101000a81548160ff0219169083151502179055506060820151816003015550505050565b60015f9054906101000a900460ff1681565b5f5f90505b5f805490508160ff16101561032a57825f8260ff16815481106102905761028f611082565b5b905f5260205f2090600402015f015f9054906101000a900460ff1660ff1603610317575f8160ff16815481106102c9576102c8611082565b5b905f5260205f2090600402016001015f6102e39190610795565b815f8260ff16815481106102fa576102f9611082565b5b905f5260205f20906004020160010190816103159190610fb3565b505b8080610322906110af565b91505061026a565b505050565b60605f805480602002602001604051908101604052809291908181526020015f905b82821015610450578382905f5260205f2090600402016040518060800160405290815f82015f9054906101000a900460ff1660ff1660ff16815260200160018201805461039d90610dd2565b80601f01602080910402602001604051908101604052809291908181526020018280546103c990610dd2565b80156104145780601f106103eb57610100808354040283529160200191610414565b820191905f5260205f20905b8154815290600101906020018083116103f757829003601f168201915b50505050508152602001600282015f9054906101000a900460ff1615151515815260200160038201548152505081526020019060010190610351565b50505050905090565b5f5f90505b5f805490508160ff161015610525578160ff165f8260ff168154811061048757610486611082565b5b905f5260205f2090600402015f015f9054906101000a900460ff1660ff16036105125760015f8260ff16815481106104c2576104c1611082565b5b905f5260205f2090600402016002015f6101000a81548160ff021916908315150217905550425f8260ff16815481106104fe576104fd611082565b5b905f5260205f209060040201600301819055505b808061051d906110af565b91505061045e565b5050565b5f8181548110610537575f80fd5b905f5260205f2090600402015f91509050805f015f9054906101000a900460ff169080600101805461056890610dd2565b80601f016020809104026020016040519081016040528092919081815260200182805461059490610dd2565b80156105df5780601f106105b6576101008083540402835291602001916105df565b820191905f5260205f20905b8154815290600101906020018083116105c257829003601f168201915b505050505090806002015f9054906101000a900460ff16908060030154905084565b5f5f90505b5f805490508160ff161015610791578160ff165f8260ff168154811061062f5761062e611082565b5b905f5260205f2090600402015f015f9054906101000a900460ff1660ff160361077e575f60015f8054905061066491906110d7565b8154811061067557610674611082565b5b905f5260205f2090600402015f8260ff168154811061069757610696611082565b5b905f5260205f2090600402015f82015f9054906101000a900460ff16815f015f6101000a81548160ff021916908360ff160217905550600182018160010190816106e1919061111f565b50600282015f9054906101000a900460ff16816002015f6101000a81548160ff021916908315150217905550600382015481600301559050505f80548061072b5761072a611204565b5b600190038181905f5260205f2090600402015f5f82015f6101000a81549060ff0219169055600182015f61075f9190610795565b600282015f6101000a81549060ff0219169055600382015f9055505090555b8080610789906110af565b915050610606565b5050565b5080546107a190610dd2565b5f825580601f106107b257506107cc565b601f0160209004905f5260205f20906107cb91906107cf565b5b50565b5f5b808211156107e7578281015f90556001016107d1565b505090565b5f604051905090565b5f5ffd5b5f5ffd5b5f5ffd5b5f5ffd5b5f601f19601f8301169050919050565b7f4e487b71000000000000000000000000000000000000000000000000000000005f52604160045260245ffd5b61084b82610805565b810181811067ffffffffffffffff8211171561086a57610869610815565b5b80604052505050565b5f61087c6107ec565b90506108888282610842565b919050565b5f67ffffffffffffffff8211156108a7576108a6610815565b5b6108b082610805565b9050602081019050919050565b828183375f83830152505050565b5f6108dd6108d88461088d565b610873565b9050828152602081018484840111156108f9576108f8610801565b5b6109048482856108bd565b509392505050565b5f82601f8301126109205761091f6107fd565b5b81356109308482602086016108cb565b91505092915050565b5f6020828403121561094e5761094d6107f5565b5b5f82013567ffffffffffffffff81111561096b5761096a6107f9565b5b6109778482850161090c565b91505092915050565b5f60ff82169050919050565b61099581610980565b82525050565b5f6020820190506109ae5f83018461098c565b92915050565b5f819050919050565b6109c6816109b4565b81146109d0575f5ffd5b50565b5f813590506109e1816109bd565b92915050565b5f5f604083850312156109fd576109fc6107f5565b5b5f610a0a858286016109d3565b925050602083013567ffffffffffffffff811115610a2b57610a2a6107f9565b5b610a378582860161090c565b9150509250929050565b5f81519050919050565b5f82825260208201905092915050565b5f819050602082019050919050565b610a7381610980565b82525050565b5f81519050919050565b5f82825260208201905092915050565b8281835e5f83830152505050565b5f610aab82610a79565b610ab58185610a83565b9350610ac5818560208601610a93565b610ace81610805565b840191505092915050565b5f8115159050919050565b610aed81610ad9565b82525050565b610afc816109b4565b82525050565b5f608083015f830151610b175f860182610a6a565b5060208301518482036020860152610b2f8282610aa1565b9150506040830151610b446040860182610ae4565b506060830151610b576060860182610af3565b508091505092915050565b5f610b6d8383610b02565b905092915050565b5f602082019050919050565b5f610b8b82610a41565b610b958185610a4b565b935083602082028501610ba785610a5b565b805f5b85811015610be25784840389528151610bc38582610b62565b9450610bce83610b75565b925060208a01995050600181019050610baa565b50829750879550505050505092915050565b5f6020820190508181035f830152610c0c8184610b81565b905092915050565b610c1d81610980565b8114610c27575f5ffd5b50565b5f81359050610c3881610c14565b92915050565b5f60208284031215610c5357610c526107f5565b5b5f610c6084828501610c2a565b91505092915050565b5f60208284031215610c7e57610c7d6107f5565b5b5f610c8b848285016109d3565b91505092915050565b5f82825260208201905092915050565b5f610cae82610a79565b610cb88185610c94565b9350610cc8818560208601610a93565b610cd181610805565b840191505092915050565b610ce581610ad9565b82525050565b610cf4816109b4565b82525050565b5f608082019050610d0d5f83018761098c565b8181036020830152610d1f8186610ca4565b9050610d2e6040830185610cdc565b610d3b6060830184610ceb565b95945050505050565b7f4e487b71000000000000000000000000000000000000000000000000000000005f52601160045260245ffd5b5f610d7b82610980565b9150610d8683610980565b9250828201905060ff811115610d9f57610d9e610d44565b5b92915050565b7f4e487b71000000000000000000000000000000000000000000000000000000005f52602260045260245ffd5b5f6002820490506001821680610de957607f821691505b602082108103610dfc57610dfb610da5565b5b50919050565b5f819050815f5260205f209050919050565b5f6020601f8301049050919050565b5f82821b905092915050565b5f60088302610e5e7fffffffffffffffffffffffffffffffffffffffffffffffffffffffffffffffff82610e23565b610e688683610e23565b95508019841693508086168417925050509392505050565b5f819050919050565b5f610ea3610e9e610e99846109b4565b610e80565b6109b4565b9050919050565b5f819050919050565b610ebc83610e89565b610ed0610ec882610eaa565b848454610e2f565b825550505050565b5f5f905090565b610ee7610ed8565b610ef2818484610eb3565b505050565b5f5b82811015610f1857610f0d5f828401610edf565b600181019050610ef9565b505050565b601f821115610f6b5782821115610f6a57610f3781610e02565b610f4083610e14565b610f4985610e14565b6020861015610f56575f90505b808301610f6582840382610ef7565b505050505b5b505050565b5f82821c905092915050565b5f610f8b5f1984600802610f70565b1980831691505092915050565b5f610fa38383610f7c565b9150826002028217905092915050565b610fbc82610a79565b67ffffffffffffffff811115610fd557610fd4610815565b5b610fdf8254610dd2565b610fea828285610f1d565b5f60209050601f83116001811461101b575f8415611009578287015190505b6110138582610f98565b86555061107a565b601f19841661102986610e02565b5f5b828110156110505784890151825560018201915060208501945060208101905061102b565b8683101561106d5784890151611069601f891682610f7c565b8355505b6001600288020188555050505b505050505050565b7f4e487b71000000000000000000000000000000000000000000000000000000005f52603260045260245ffd5b5f6110b982610980565b915060ff82036110cc576110cb610d44565b5b600182019050919050565b5f6110e1826109b4565b91506110ec836109b4565b925082820390508181111561110457611103610d44565b5b92915050565b5f8154905061111881610dd2565b9050919050565b81810361112d575050611202565b6111368261110a565b67ffffffffffffffff81111561114f5761114e610815565b5b6111598254610dd2565b611164828285610f1d565b5f601f831160018114611191575f841561117f578287015490505b6111898582610f98565b8655506111fb565b601f19841661119f87610e02565b96506111aa86610e02565b5f5b828110156111d1578489015482556001820191506001850194506020810190506111ac565b868310156111ee57848901546111ea601f891682610f7c565b8355505b6001600288020188555050505b5050505050505b565b7f4e487b71000000000000000000000000000000000000000000000000000000005f52603160045260245ffdfea264697066735822122001a10e2ac8a192b7d15d020f7fe52642283784ce34c6f1d1c00e219ceb893b7464736f6c63430008210033","linkReferences":{}},"methodIdentifiers":{"createTask(string)":"111002aa","deleteTask(uint8)":"c3d081f5","getAllTasks()":"779900b4","markComplete(uint8)":"83de1242","tasks(uint256)":"8d977672","todoId()":"3beb3ac2","updateTitle(uint256,string)":"5786ead2"},"id":17}