{"abi":[{"type":"constructor","inputs":[{"name":"_tokenAddress","type":"address","internalType":"address"}],"stateMutability":"nonpayable"},{"type":"function","name":"getAllStaffs","inputs":[],"outputs":[{"name":"","type":"tuple[]","internalType":"struct schoolMgn.Staff[]","components":[{"name":"staffid","type":"uint256","internalType":"uint256"},{"name":"name","type":"string","internalType":"string"},{"name":"level","type":"uint256","internalType":"uint256"},{"name":"salary","type":"uint256","internalType":"uint256"},{"name":"paidSalary","type":"bool","internalType":"bool"}]}],"stateMutability":"view"},{"type":"function","name":"getAllStudents","inputs":[],"outputs":[{"name":"","type":"tuple[]","internalType":"struct schoolMgn.Student[]","components":[{"name":"id","type":"uint256","internalType":"uint256"},{"name":"name","type":"string","internalType":"string"},{"name":"level","type":"uint256","internalType":"uint256"},{"name":"fee","type":"uint256","internalType":"uint256"},{"name":"paid","type":"bool","internalType":"bool"},{"name":"timePaid","type":"uint256","internalType":"uint256"}]}],"stateMutability":"view"},{"type":"function","name":"levelFees","inputs":[{"name":"","type":"uint256","internalType":"uint256"}],"outputs":[{"name":"","type":"uint256","internalType":"uint256"}],"stateMutability":"view"},{"type":"function","name":"levelSalary","inputs":[{"name":"","type":"uint256","internalType":"uint256"}],"outputs":[{"name":"","type":"uint256","internalType":"uint256"}],"stateMutability":"view"},{"type":"function","name":"payStaff","inputs":[{"name":"_staffId","type":"uint256","internalType":"uint256"},{"name":"_staffAddress","type":"address","internalType":"address"}],"outputs":[],"stateMutability":"nonpayable"},{"type":"function","name":"registerStaff","inputs":[{"name":"_name","type":"string","internalType":"string"},{"name":"_level","type":"uint256","internalType":"uint256"}],"outputs":[],"stateMutability":"nonpayable"},{"type":"function","name":"registerStudent","inputs":[{"name":"_name","type":"string","internalType":"string"},{"name":"_level","type":"uint256","internalType":"uint256"}],"outputs":[],"stateMutability":"nonpayable"},{"type":"function","name":"schoolFees","inputs":[{"name":"","type":"address","internalType":"address"}],"outputs":[{"name":"","type":"uint256","internalType":"uint256"}],"stateMutability":"view"},{"type":"function","name":"staffId","inputs":[],"outputs":[{"name":"","type":"uint256","internalType":"uint256"}],"stateMutability":"view"},{"type":"function","name":"staffs","inputs":[{"name":"","type":"uint256","internalType":"uint256"}],"outputs":[{"name":"staffid","type":"uint256","internalType":"uint256"},{"name":"name","type":"string","internalType":"string"},{"name":"level","type":"uint256","internalType":"uint256"},{"name":"salary","type":"uint256","internalType":"uint256"},{"name":"paidSalary","type":"bool","internalType":"bool"}],"stateMutability":"view"},{"type":"function","name":"studentId","inputs":[],"outputs":[{"name":"","type":"uint256","internalType":"uint256"}],"stateMutability":"view"},{"type":"function","name":"students","inputs":[{"name":"","type":"uint256","internalType":"uint256"}],"outputs":[{"name":"id","type":"uint256","internalType":"uint256"},{"name":"name","type":"string","internalType":"string"},{"name":"level","type":"uint256","internalType":"uint256"},{"name":"fee","type":"uint256","internalType":"uint256"},{"name":"paid","type":"bool","internalType":"bool"},{"name":"timePaid","type":"uint256","internalType":"uint256"}],"stateMutability":"view"},{"type":"function","name":"token","inputs":[],"outputs":[{"name":"","type":"address","internalType":"contract ERC20"}],"stateMutability":"view"}],"bytecode":{"object":"0x608060405234801561000f575f5ffd5b50604051611f08380380611f08833981810160405281019061003191906101d8565b805f5f6101000a81548173ffffffffffffffffffffffffffffffffffffffff021916908373ffffffffffffffffffffffffffffffffffffffff160217905550683635c9adc5dea0000060015f606481526020019081526020015f2081905550686c6b935b8bbd40000060015f60c881526020019081526020015f208190555068a2a15d09519be0000060015f61012c81526020019081526020015f208190555068d8d726b7177a80000060015f61019081526020019081526020015f208190555068056bc75e2d6310000060025f606481526020019081526020015f2081905550680ad78ebc5ac620000060025f60c881526020019081526020015f2081905550681043561a882930000060025f61012c81526020019081526020015f20819055506815af1d78b58c40000060025f61019081526020019081526020015f208190555050610203565b5f5ffd5b5f73ffffffffffffffffffffffffffffffffffffffff82169050919050565b5f6101a78261017e565b9050919050565b6101b78161019d565b81146101c1575f5ffd5b50565b5f815190506101d2816101ae565b92915050565b5f602082840312156101ed576101ec61017a565b5b5f6101fa848285016101c4565b91505092915050565b611cf8806102105f395ff3fe608060405234801561000f575f5ffd5b50600436106100cd575f3560e01c8063a9b3821c1161008a578063d505acb711610064578063d505acb71461022c578063d6f702d51461025c578063e9e3092714610278578063fc0c546a14610296576100cd565b8063a9b3821c146101b0578063adaf53b0146101cc578063ce03d3df146101fc576100cd565b8063037c73c2146100d157806306ead22e146100ef57806312a0b74414610124578063498d4707146101405780637b487c57146101745780639ab55be414610192575b5f5ffd5b6100d96102b4565b6040516100e69190610fc5565b60405180910390f35b61010960048036038101906101049190611020565b6103d7565b60405161011b969594939291906110b1565b60405180910390f35b61013e60048036038101906101399190611243565b6104b0565b005b61015a60048036038101906101559190611020565b6107c7565b60405161016b95949392919061129d565b60405180910390f35b61017c61089a565b60405161018991906112f5565b60405180910390f35b61019a6108a0565b6040516101a791906112f5565b60405180910390f35b6101ca60048036038101906101c59190611368565b6108a6565b005b6101e660048036038101906101e191906113a6565b610b87565b6040516101f391906112f5565b60405180910390f35b61021660048036038101906102119190611020565b610b9c565b60405161022391906112f5565b60405180910390f35b61024660048036038101906102419190611020565b610bb1565b60405161025391906112f5565b60405180910390f35b61027660048036038101906102719190611243565b610bc6565b005b610280610ca4565b60405161028d9190611512565b60405180910390f35b61029e610dd1565b6040516102ab919061158d565b60405180910390f35b60606005805480602002602001604051908101604052809291908181526020015f905b828210156103ce578382905f5260205f2090600502016040518060a00160405290815f8201548152602001600182018054610311906115d3565b80601f016020809104026020016040519081016040528092919081815260200182805461033d906115d3565b80156103885780601f1061035f57610100808354040283529160200191610388565b820191905f5260205f20905b81548152906001019060200180831161036b57829003601f168201915b505050505081526020016002820154815260200160038201548152602001600482015f9054906101000a900460ff161515151581525050815260200190600101906102d7565b50505050905090565b600481815481106103e6575f80fd5b905f5260205f2090600602015f91509050805f01549080600101805461040b906115d3565b80601f0160208091040260200160405190810160405280929190818152602001828054610437906115d3565b80156104825780601f1061045957610100808354040283529160200191610482565b820191905f5260205f20905b81548152906001019060200180831161046557829003601f168201915b505050505090806002015490806003015490806004015f9054906101000a900460ff16908060050154905086565b5f60015f8381526020019081526020015f205490505f73ffffffffffffffffffffffffffffffffffffffff163373ffffffffffffffffffffffffffffffffffffffff1603610533576040517f08c379a000000000000000000000000000000000000000000000000000000000815260040161052a9061164d565b60405180910390fd5b5f8111610575576040517f08c379a000000000000000000000000000000000000000000000000000000000815260040161056c906116b5565b60405180910390fd5b805f5f9054906101000a900473ffffffffffffffffffffffffffffffffffffffff1673ffffffffffffffffffffffffffffffffffffffff166370a08231336040518263ffffffff1660e01b81526004016105cf91906116e2565b602060405180830381865afa1580156105ea573d5f5f3e3d5ffd5b505050506040513d601f19601f8201168201806040525081019061060e919061170f565b101561064f576040517f08c379a000000000000000000000000000000000000000000000000000000000815260040161064690611784565b60405180910390fd5b5f5f9054906101000a900473ffffffffffffffffffffffffffffffffffffffff1673ffffffffffffffffffffffffffffffffffffffff166323b872dd3330846040518463ffffffff1660e01b81526004016106ac939291906117a2565b6020604051808303815f875af11580156106c8573d5f5f3e3d5ffd5b505050506040513d601f19601f820116820180604052508101906106ec9190611801565b50600160065f8282546106ff9190611859565b925050819055505f6040518060c001604052806006548152602001858152602001848152602001838152602001600115158152602001428152509050600481908060018154018082558091505060019003905f5260205f2090600602015f909190919091505f820151815f015560208201518160010190816107819190611a34565b5060408201518160020155606082015181600301556080820151816004015f6101000a81548160ff02191690831515021790555060a08201518160050155505050505050565b600581815481106107d6575f80fd5b905f5260205f2090600502015f91509050805f0154908060010180546107fb906115d3565b80601f0160208091040260200160405190810160405280929190818152602001828054610827906115d3565b80156108725780601f1061084957610100808354040283529160200191610872565b820191905f5260205f20905b81548152906001019060200180831161085557829003601f168201915b505050505090806002015490806003015490806004015f9054906101000a900460ff16905085565b60065481565b60075481565b5f821180156108ba57506005805490508211155b6108f9576040517f08c379a00000000000000000000000000000000000000000000000000000000081526004016108f090611b4d565b60405180910390fd5b5f60056001846109099190611b6b565b8154811061091a57610919611b9e565b5b905f5260205f2090600502019050806004015f9054906101000a900460ff1615610979576040517f08c379a000000000000000000000000000000000000000000000000000000000815260040161097090611c15565b60405180910390fd5b5f816003015490505f73ffffffffffffffffffffffffffffffffffffffff168373ffffffffffffffffffffffffffffffffffffffff16036109ef576040517f08c379a00000000000000000000000000000000000000000000000000000000081526004016109e69061164d565b60405180910390fd5b805f5f9054906101000a900473ffffffffffffffffffffffffffffffffffffffff1673ffffffffffffffffffffffffffffffffffffffff166370a08231306040518263ffffffff1660e01b8152600401610a4991906116e2565b602060405180830381865afa158015610a64573d5f5f3e3d5ffd5b505050506040513d601f19601f82011682018060405250810190610a88919061170f565b1015610ac9576040517f08c379a0000000000000000000000000000000000000000000000000000000008152600401610ac090611c7d565b60405180910390fd5b5f5f9054906101000a900473ffffffffffffffffffffffffffffffffffffffff1673ffffffffffffffffffffffffffffffffffffffff1663a9059cbb84836040518363ffffffff1660e01b8152600401610b24929190611c9b565b6020604051808303815f875af1158015610b40573d5f5f3e3d5ffd5b505050506040513d601f19601f82011682018060405250810190610b649190611801565b506001826004015f6101000a81548160ff02191690831515021790555050505050565b6003602052805f5260405f205f915090505481565b6001602052805f5260405f205f915090505481565b6002602052805f5260405f205f915090505481565b5f60025f8381526020019081526020015f20549050600160075f828254610bed9190611859565b925050819055505f6040518060a0016040528060075481526020018581526020018481526020018381526020015f15158152509050600581908060018154018082558091505060019003905f5260205f2090600502015f909190919091505f820151815f01556020820151816001019081610c689190611a34565b5060408201518160020155606082015181600301556080820151816004015f6101000a81548160ff021916908315150217905550505050505050565b60606004805480602002602001604051908101604052809291908181526020015f905b82821015610dc8578382905f5260205f2090600602016040518060c00160405290815f8201548152602001600182018054610d01906115d3565b80601f0160208091040260200160405190810160405280929190818152602001828054610d2d906115d3565b8015610d785780601f10610d4f57610100808354040283529160200191610d78565b820191905f5260205f20905b815481529060010190602001808311610d5b57829003601f168201915b505050505081526020016002820154815260200160038201548152602001600482015f9054906101000a900460ff1615151515815260200160058201548152505081526020019060010190610cc7565b50505050905090565b5f5f9054906101000a900473ffffffffffffffffffffffffffffffffffffffff1681565b5f81519050919050565b5f82825260208201905092915050565b5f819050602082019050919050565b5f819050919050565b610e3081610e1e565b82525050565b5f81519050919050565b5f82825260208201905092915050565b8281835e5f83830152505050565b5f601f19601f8301169050919050565b5f610e7882610e36565b610e828185610e40565b9350610e92818560208601610e50565b610e9b81610e5e565b840191505092915050565b5f8115159050919050565b610eba81610ea6565b82525050565b5f60a083015f830151610ed55f860182610e27565b5060208301518482036020860152610eed8282610e6e565b9150506040830151610f026040860182610e27565b506060830151610f156060860182610e27565b506080830151610f286080860182610eb1565b508091505092915050565b5f610f3e8383610ec0565b905092915050565b5f602082019050919050565b5f610f5c82610df5565b610f668185610dff565b935083602082028501610f7885610e0f565b805f5b85811015610fb35784840389528151610f948582610f33565b9450610f9f83610f46565b925060208a01995050600181019050610f7b565b50829750879550505050505092915050565b5f6020820190508181035f830152610fdd8184610f52565b905092915050565b5f604051905090565b5f5ffd5b5f5ffd5b610fff81610e1e565b8114611009575f5ffd5b50565b5f8135905061101a81610ff6565b92915050565b5f6020828403121561103557611034610fee565b5b5f6110428482850161100c565b91505092915050565b61105481610e1e565b82525050565b5f82825260208201905092915050565b5f61107482610e36565b61107e818561105a565b935061108e818560208601610e50565b61109781610e5e565b840191505092915050565b6110ab81610ea6565b82525050565b5f60c0820190506110c45f83018961104b565b81810360208301526110d6818861106a565b90506110e5604083018761104b565b6110f2606083018661104b565b6110ff60808301856110a2565b61110c60a083018461104b565b979650505050505050565b5f5ffd5b5f5ffd5b7f4e487b71000000000000000000000000000000000000000000000000000000005f52604160045260245ffd5b61115582610e5e565b810181811067ffffffffffffffff821117156111745761117361111f565b5b80604052505050565b5f611186610fe5565b9050611192828261114c565b919050565b5f67ffffffffffffffff8211156111b1576111b061111f565b5b6111ba82610e5e565b9050602081019050919050565b828183375f83830152505050565b5f6111e76111e284611197565b61117d565b9050828152602081018484840111156112035761120261111b565b5b61120e8482856111c7565b509392505050565b5f82601f83011261122a57611229611117565b5b813561123a8482602086016111d5565b91505092915050565b5f5f6040838503121561125957611258610fee565b5b5f83013567ffffffffffffffff81111561127657611275610ff2565b5b61128285828601611216565b92505060206112938582860161100c565b9150509250929050565b5f60a0820190506112b05f83018861104b565b81810360208301526112c2818761106a565b90506112d1604083018661104b565b6112de606083018561104b565b6112eb60808301846110a2565b9695505050505050565b5f6020820190506113085f83018461104b565b92915050565b5f73ffffffffffffffffffffffffffffffffffffffff82169050919050565b5f6113378261130e565b9050919050565b6113478161132d565b8114611351575f5ffd5b50565b5f813590506113628161133e565b92915050565b5f5f6040838503121561137e5761137d610fee565b5b5f61138b8582860161100c565b925050602061139c85828601611354565b9150509250929050565b5f602082840312156113bb576113ba610fee565b5b5f6113c884828501611354565b91505092915050565b5f81519050919050565b5f82825260208201905092915050565b5f819050602082019050919050565b5f60c083015f83015161140f5f860182610e27565b50602083015184820360208601526114278282610e6e565b915050604083015161143c6040860182610e27565b50606083015161144f6060860182610e27565b5060808301516114626080860182610eb1565b5060a083015161147560a0860182610e27565b508091505092915050565b5f61148b83836113fa565b905092915050565b5f602082019050919050565b5f6114a9826113d1565b6114b381856113db565b9350836020820285016114c5856113eb565b805f5b8581101561150057848403895281516114e18582611480565b94506114ec83611493565b925060208a019950506001810190506114c8565b50829750879550505050505092915050565b5f6020820190508181035f83015261152a818461149f565b905092915050565b5f819050919050565b5f61155561155061154b8461130e565b611532565b61130e565b9050919050565b5f6115668261153b565b9050919050565b5f6115778261155c565b9050919050565b6115878161156d565b82525050565b5f6020820190506115a05f83018461157e565b92915050565b7f4e487b71000000000000000000000000000000000000000000000000000000005f52602260045260245ffd5b5f60028204905060018216806115ea57607f821691505b6020821081036115fd576115fc6115a6565b5b50919050565b7f496e76616c6964204164647265737300000000000000000000000000000000005f82015250565b5f611637600f8361105a565b915061164282611603565b602082019050919050565b5f6020820190508181035f8301526116648161162b565b9050919050565b7f496e76616c6964206c6576656c000000000000000000000000000000000000005f82015250565b5f61169f600d8361105a565b91506116aa8261166b565b602082019050919050565b5f6020820190508181035f8301526116cc81611693565b9050919050565b6116dc8161132d565b82525050565b5f6020820190506116f55f8301846116d3565b92915050565b5f8151905061170981610ff6565b92915050565b5f6020828403121561172457611723610fee565b5b5f611731848285016116fb565b91505092915050565b7f496e73756666696369656e742042616c616e63650000000000000000000000005f82015250565b5f61176e60148361105a565b91506117798261173a565b602082019050919050565b5f6020820190508181035f83015261179b81611762565b9050919050565b5f6060820190506117b55f8301866116d3565b6117c260208301856116d3565b6117cf604083018461104b565b949350505050565b6117e081610ea6565b81146117ea575f5ffd5b50565b5f815190506117fb816117d7565b92915050565b5f6020828403121561181657611815610fee565b5b5f611823848285016117ed565b91505092915050565b7f4e487b71000000000000000000000000000000000000000000000000000000005f52601160045260245ffd5b5f61186382610e1e565b915061186e83610e1e565b92508282019050808211156118865761188561182c565b5b92915050565b5f819050815f5260205f209050919050565b5f6020601f8301049050919050565b5f82821b905092915050565b5f600883026118e87fffffffffffffffffffffffffffffffffffffffffffffffffffffffffffffffff826118ad565b6118f286836118ad565b95508019841693508086168417925050509392505050565b5f61192461191f61191a84610e1e565b611532565b610e1e565b9050919050565b5f819050919050565b61193d8361190a565b6119516119498261192b565b8484546118b9565b825550505050565b5f5f905090565b611968611959565b611973818484611934565b505050565b5f5b828110156119995761198e5f828401611960565b60018101905061197a565b505050565b601f8211156119ec57828211156119eb576119b88161188c565b6119c18361189e565b6119ca8561189e565b60208610156119d7575f90505b8083016119e682840382611978565b505050505b5b505050565b5f82821c905092915050565b5f611a0c5f19846008026119f1565b1980831691505092915050565b5f611a2483836119fd565b9150826002028217905092915050565b611a3d82610e36565b67ffffffffffffffff811115611a5657611a5561111f565b5b611a6082546115d3565b611a6b82828561199e565b5f60209050601f831160018114611a9c575f8415611a8a578287015190505b611a948582611a19565b865550611afb565b601f198416611aaa8661188c565b5f5b82811015611ad157848901518255600182019150602085019450602081019050611aac565b86831015611aee5784890151611aea601f8916826119fd565b8355505b6001600288020188555050505b505050505050565b7f496e76616c6964207374616666204944000000000000000000000000000000005f82015250565b5f611b3760108361105a565b9150611b4282611b03565b602082019050919050565b5f6020820190508181035f830152611b6481611b2b565b9050919050565b5f611b7582610e1e565b9150611b8083610e1e565b9250828203905081811115611b9857611b9761182c565b5b92915050565b7f4e487b71000000000000000000000000000000000000000000000000000000005f52603260045260245ffd5b7f537461666620616c7265616479207061696400000000000000000000000000005f82015250565b5f611bff60128361105a565b9150611c0a82611bcb565b602082019050919050565b5f6020820190508181035f830152611c2c81611bf3565b9050919050565b7f496e73756666696369656e742062616c616e63650000000000000000000000005f82015250565b5f611c6760148361105a565b9150611c7282611c33565b602082019050919050565b5f6020820190508181035f830152611c9481611c5b565b9050919050565b5f604082019050611cae5f8301856116d3565b611cbb602083018461104b565b939250505056fea26469706673582212204d7f24c2e192a3bdfb1495be954953d73d132107eb66b8d57ee321b7db9e052664736f6c63430008210033","linkReferences":{}},"methodIdentifiers":{"getAllStaffs()":"037c73c2","getAllStudents()":"e9e30927","levelFees(uint256)":"ce03d3df","levelSalary(uint256)":"d505acb7","payStaff(uint256,address)":"a9b3821c","registerStaff(string,uint256)":"d6f702d5","registerStudent(string,uint256)":"12a0b744","schoolFees(address)":"adaf53b0","staffId()":"9ab55be4","staffs(uint256)":"498d4707","studentId()":"7b487c57","students(uint256)":"06ead22e","token()":"fc0c546a"},"id":20}