{"abi":[{"type":"constructor","inputs":[{"name":"_tokenAddress","type":"address","internalType":"address"}],"stateMutability":"nonpayable"},{"type":"fallback","stateMutability":"nonpayable"},{"type":"receive","stateMutability":"payable"},{"type":"function","name":"depositBalance","inputs":[],"outputs":[{"name":"","type":"uint256","internalType":"uint256"}],"stateMutability":"view"},{"type":"function","name":"depositErc20","inputs":[{"name":"_value","type":"uint256","internalType":"uint256"}],"outputs":[],"stateMutability":"nonpayable"},{"type":"function","name":"depositEther","inputs":[],"outputs":[],"stateMutability":"payable"},{"type":"function","name":"getErc20SavingsBalance","inputs":[],"outputs":[{"name":"","type":"uint256","internalType":"uint256"}],"stateMutability":"view"},{"type":"function","name":"getUserSavings","inputs":[],"outputs":[{"name":"","type":"uint256","internalType":"uint256"}],"stateMutability":"view"},{"type":"function","name":"withdrawErc20","inputs":[{"name":"_value","type":"uint256","internalType":"uint256"}],"outputs":[],"stateMutability":"nonpayable"},{"type":"function","name":"withdrawEther","inputs":[{"name":"_value","type":"uint256","internalType":"uint256"}],"outputs":[],"stateMutability":"nonpayable"},{"type":"event","name":"DepositSuccessful","inputs":[{"name":"from","type":"address","indexed":false,"internalType":"address"},{"name":"depositedAmount","type":"uint256","indexed":false,"internalType":"uint256"}],"anonymous":false},{"type":"event","name":"WithdrawalSuccesful","inputs":[{"name":"to","type":"address","indexed":false,"internalType":"address"},{"name":"withdrawAmount","type":"uint256","indexed":false,"internalType":"uint256"}],"anonymous":false}],"bytecode":{"object":"0x608060405234801561000f575f5ffd5b5060405161121f38038061121f833981810160405281019061003191906100d4565b805f5f6101000a81548173ffffffffffffffffffffffffffffffffffffffff021916908373ffffffffffffffffffffffffffffffffffffffff160217905550506100ff565b5f5ffd5b5f73ffffffffffffffffffffffffffffffffffffffff82169050919050565b5f6100a38261007a565b9050919050565b6100b381610099565b81146100bd575f5ffd5b50565b5f815190506100ce816100aa565b92915050565b5f602082840312156100e9576100e8610076565b5b5f6100f6848285016100c0565b91505092915050565b6111138061010c5f395ff3fe608060405260043610610073575f3560e01c806361bc1a491161004d57806361bc1a49146100ff578063690e2ea91461012957806398ea5fca14610153578063c1650bb71461015d5761007a565b80631285100214610087578063258ab15c146100af5780633bed33ce146100d75761007a565b3661007a57005b348015610085575f5ffd5b005b348015610092575f5ffd5b506100ad60048036038101906100a89190610b13565b610187565b005b3480156100ba575f5ffd5b506100d560048036038101906100d09190610b13565b610445565b005b3480156100e2575f5ffd5b506100fd60048036038101906100f89190610b13565b6106a7565b005b34801561010a575f5ffd5b5061011361090f565b6040516101209190610b4d565b60405180910390f35b348015610134575f5ffd5b5061013d610916565b60405161014a9190610b4d565b60405180910390f35b61015b61095a565b005b348015610168575f5ffd5b50610171610a98565b60405161017e9190610b4d565b60405180910390f35b5f81116101c9576040517f08c379a00000000000000000000000000000000000000000000000000000000081526004016101c090610bc0565b60405180910390fd5b805f5f9054906101000a900473ffffffffffffffffffffffffffffffffffffffff1673ffffffffffffffffffffffffffffffffffffffff166370a08231336040518263ffffffff1660e01b81526004016102239190610c1d565b602060405180830381865afa15801561023e573d5f5f3e3d5ffd5b505050506040513d601f19601f820116820180604052508101906102629190610c4a565b10156102a3576040517f08c379a000000000000000000000000000000000000000000000000000000000815260040161029a90610cbf565b60405180910390fd5b8060025f3373ffffffffffffffffffffffffffffffffffffffff1673ffffffffffffffffffffffffffffffffffffffff1681526020019081526020015f20546102ec9190610d0a565b60025f3373ffffffffffffffffffffffffffffffffffffffff1673ffffffffffffffffffffffffffffffffffffffff1681526020019081526020015f20819055505f5f9054906101000a900473ffffffffffffffffffffffffffffffffffffffff1673ffffffffffffffffffffffffffffffffffffffff166323b872dd3330846040518463ffffffff1660e01b815260040161038a93929190610d3d565b6020604051808303815f875af11580156103a6573d5f5f3e3d5ffd5b505050506040513d601f19601f820116820180604052508101906103ca9190610da7565b610409576040517f08c379a000000000000000000000000000000000000000000000000000000000815260040161040090610e1c565b60405180910390fd5b7fb3ef81558ed1a50072a492984535a009da8b129c749500b387f1e5f4886bdde5338260405161043a929190610e3a565b60405180910390a150565b5f8111610487576040517f08c379a000000000000000000000000000000000000000000000000000000000815260040161047e90610bc0565b60405180910390fd5b60025f3373ffffffffffffffffffffffffffffffffffffffff1673ffffffffffffffffffffffffffffffffffffffff1681526020019081526020015f2054811115610507576040517f08c379a00000000000000000000000000000000000000000000000000000000081526004016104fe90610cbf565b60405180910390fd5b8060025f3373ffffffffffffffffffffffffffffffffffffffff1673ffffffffffffffffffffffffffffffffffffffff1681526020019081526020015f20546105509190610e61565b60025f3373ffffffffffffffffffffffffffffffffffffffff1673ffffffffffffffffffffffffffffffffffffffff1681526020019081526020015f20819055505f5f9054906101000a900473ffffffffffffffffffffffffffffffffffffffff1673ffffffffffffffffffffffffffffffffffffffff1663a9059cbb33836040518363ffffffff1660e01b81526004016105ec929190610e3a565b6020604051808303815f875af1158015610608573d5f5f3e3d5ffd5b505050506040513d601f19601f8201168201806040525081019061062c9190610da7565b61066b576040517f08c379a000000000000000000000000000000000000000000000000000000000815260040161066290610ede565b60405180910390fd5b7fbdd7e3292fbb6d5e97d00371c146f55d4650a07b182df12d6c31c7345c3b3715338260405161069c929190610e3a565b60405180910390a150565b5f73ffffffffffffffffffffffffffffffffffffffff163373ffffffffffffffffffffffffffffffffffffffff1603610715576040517f08c379a000000000000000000000000000000000000000000000000000000000815260040161070c90610f46565b60405180910390fd5b5f8111610757576040517f08c379a000000000000000000000000000000000000000000000000000000000815260040161074e90610bc0565b60405180910390fd5b60015f3373ffffffffffffffffffffffffffffffffffffffff1673ffffffffffffffffffffffffffffffffffffffff1681526020019081526020015f20548111156107d7576040517f08c379a00000000000000000000000000000000000000000000000000000000081526004016107ce90610cbf565b60405180910390fd5b8060015f3373ffffffffffffffffffffffffffffffffffffffff1673ffffffffffffffffffffffffffffffffffffffff1681526020019081526020015f205f8282546108239190610e61565b925050819055505f3373ffffffffffffffffffffffffffffffffffffffff168260405161084f90610f91565b5f6040518083038185875af1925050503d805f8114610889576040519150601f19603f3d011682016040523d82523d5f602084013e61088e565b606091505b50509050806108d2576040517f08c379a00000000000000000000000000000000000000000000000000000000081526004016108c990610fef565b60405180910390fd5b7fbdd7e3292fbb6d5e97d00371c146f55d4650a07b182df12d6c31c7345c3b37153383604051610903929190610e3a565b60405180910390a15050565b5f47905090565b5f60015f3373ffffffffffffffffffffffffffffffffffffffff1673ffffffffffffffffffffffffffffffffffffffff1681526020019081526020015f2054905090565b5f73ffffffffffffffffffffffffffffffffffffffff163373ffffffffffffffffffffffffffffffffffffffff16036109c8576040517f08c379a00000000000000000000000000000000000000000000000000000000081526004016109bf90611057565b60405180910390fd5b5f3411610a0a576040517f08c379a0000000000000000000000000000000000000000000000000000000008152600401610a01906110bf565b60405180910390fd5b3460015f3373ffffffffffffffffffffffffffffffffffffffff1673ffffffffffffffffffffffffffffffffffffffff1681526020019081526020015f205f828254610a569190610d0a565b925050819055507fb3ef81558ed1a50072a492984535a009da8b129c749500b387f1e5f4886bdde53334604051610a8e929190610e3a565b60405180910390a1565b5f60025f3373ffffffffffffffffffffffffffffffffffffffff1673ffffffffffffffffffffffffffffffffffffffff1681526020019081526020015f2054905090565b5f5ffd5b5f819050919050565b610af281610ae0565b8114610afc575f5ffd5b50565b5f81359050610b0d81610ae9565b92915050565b5f60208284031215610b2857610b27610adc565b5b5f610b3584828501610aff565b91505092915050565b610b4781610ae0565b82525050565b5f602082019050610b605f830184610b3e565b92915050565b5f82825260208201905092915050565b7f496e76616c696420616d6f756e740000000000000000000000000000000000005f82015250565b5f610baa600e83610b66565b9150610bb582610b76565b602082019050919050565b5f6020820190508181035f830152610bd781610b9e565b9050919050565b5f73ffffffffffffffffffffffffffffffffffffffff82169050919050565b5f610c0782610bde565b9050919050565b610c1781610bfd565b82525050565b5f602082019050610c305f830184610c0e565b92915050565b5f81519050610c4481610ae9565b92915050565b5f60208284031215610c5f57610c5e610adc565b5b5f610c6c84828501610c36565b91505092915050565b7f496e73756666696369656e742066756e647300000000000000000000000000005f82015250565b5f610ca9601283610b66565b9150610cb482610c75565b602082019050919050565b5f6020820190508181035f830152610cd681610c9d565b9050919050565b7f4e487b71000000000000000000000000000000000000000000000000000000005f52601160045260245ffd5b5f610d1482610ae0565b9150610d1f83610ae0565b9250828201905080821115610d3757610d36610cdd565b5b92915050565b5f606082019050610d505f830186610c0e565b610d5d6020830185610c0e565b610d6a6040830184610b3e565b949350505050565b5f8115159050919050565b610d8681610d72565b8114610d90575f5ffd5b50565b5f81519050610da181610d7d565b92915050565b5f60208284031215610dbc57610dbb610adc565b5b5f610dc984828501610d93565b91505092915050565b7f6465706f736974206661696c65640000000000000000000000000000000000005f82015250565b5f610e06600e83610b66565b9150610e1182610dd2565b602082019050919050565b5f6020820190508181035f830152610e3381610dfa565b9050919050565b5f604082019050610e4d5f830185610c0e565b610e5a6020830184610b3e565b9392505050565b5f610e6b82610ae0565b9150610e7683610ae0565b9250828203905081811115610e8e57610e8d610cdd565b5b92915050565b7f7472616e73666572206661696c656400000000000000000000000000000000005f82015250565b5f610ec8600f83610b66565b9150610ed382610e94565b602082019050919050565b5f6020820190508181035f830152610ef581610ebc565b9050919050565b7f496e76616c6964204164647265737300000000000000000000000000000000005f82015250565b5f610f30600f83610b66565b9150610f3b82610efc565b602082019050919050565b5f6020820190508181035f830152610f5d81610f24565b9050919050565b5f81905092915050565b50565b5f610f7c5f83610f64565b9150610f8782610f6e565b5f82019050919050565b5f610f9b82610f71565b9150819050919050565b7f5472616e73666572206661696c656400000000000000000000000000000000005f82015250565b5f610fd9600f83610b66565b9150610fe482610fa5565b602082019050919050565b5f6020820190508181035f83015261100681610fcd565b9050919050565b7f496e76616c6964206164647265737300000000000000000000000000000000005f82015250565b5f611041600f83610b66565b915061104c8261100d565b602082019050919050565b5f6020820190508181035f83015261106e81611035565b9050919050565b7f416d6f756e74206d7573742062652067726561746572207468616e207a65726f5f82015250565b5f6110a9602083610b66565b91506110b482611075565b602082019050919050565b5f6020820190508181035f8301526110d68161109d565b905091905056fea2646970667358221220de2251f32cfea6a90f1cc3aaec480e9f0a40bae493be80579452afd1fa71633d64736f6c63430008210033","linkReferences":{}},"methodIdentifiers":{"depositBalance()":"61bc1a49","depositErc20(uint256)":"12851002","depositEther()":"98ea5fca","getErc20SavingsBalance()":"c1650bb7","getUserSavings()":"690e2ea9","withdrawErc20(uint256)":"258ab15c","withdrawEther(uint256)":"3bed33ce"},"id":19}