{"abi":[{"type":"fallback","stateMutability":"nonpayable"},{"type":"receive","stateMutability":"payable"},{"type":"function","name":"deposit","inputs":[],"outputs":[],"stateMutability":"payable"},{"type":"function","name":"depositBalance","inputs":[],"outputs":[{"name":"","type":"uint256","internalType":"uint256"}],"stateMutability":"view"},{"type":"function","name":"getUserSavings","inputs":[],"outputs":[{"name":"","type":"uint256","internalType":"uint256"}],"stateMutability":"view"},{"type":"function","name":"withdraw","inputs":[{"name":"_value","type":"uint256","internalType":"uint256"}],"outputs":[],"stateMutability":"nonpayable"},{"type":"event","name":"Deposit","inputs":[{"name":"from","type":"address","indexed":false,"internalType":"address"},{"name":"depositedAmount","type":"uint256","indexed":false,"internalType":"uint256"}],"anonymous":false},{"type":"event","name":"Withdrawal","inputs":[{"name":"to","type":"address","indexed":false,"internalType":"address"},{"name":"withdrawAmount","type":"uint256","indexed":false,"internalType":"uint256"}],"anonymous":false}],"bytecode":{"object":"0x6080604052348015600e575f5ffd5b506109438061001c5f395ff3fe608060405260043610610042575f3560e01c80632e1a7d4d1461005657806361bc1a491461007e578063690e2ea9146100a8578063d0e30db0146100d257610049565b3661004957005b348015610054575f5ffd5b005b348015610061575f5ffd5b5061007c60048036038101906100779190610500565b6100dc565b005b348015610089575f5ffd5b50610092610342565b60405161009f919061053a565b60405180910390f35b3480156100b3575f5ffd5b506100bc610349565b6040516100c9919061053a565b60405180910390f35b6100da61038c565b005b5f73ffffffffffffffffffffffffffffffffffffffff163373ffffffffffffffffffffffffffffffffffffffff160361014a576040517f08c379a0000000000000000000000000000000000000000000000000000000008152600401610141906105ad565b60405180910390fd5b5f811161018c576040517f08c379a000000000000000000000000000000000000000000000000000000000815260040161018390610615565b60405180910390fd5b5f5f3373ffffffffffffffffffffffffffffffffffffffff1673ffffffffffffffffffffffffffffffffffffffff1681526020019081526020015f205481111561020b576040517f08c379a00000000000000000000000000000000000000000000000000000000081526004016102029061067d565b60405180910390fd5b805f5f3373ffffffffffffffffffffffffffffffffffffffff1673ffffffffffffffffffffffffffffffffffffffff1681526020019081526020015f205f82825461025691906106c8565b925050819055505f3373ffffffffffffffffffffffffffffffffffffffff168260405161028290610728565b5f6040518083038185875af1925050503d805f81146102bc576040519150601f19603f3d011682016040523d82523d5f602084013e6102c1565b606091505b5050905080610305576040517f08c379a00000000000000000000000000000000000000000000000000000000081526004016102fc90610786565b60405180910390fd5b7f7fcf532c15f0a6db0bd6d0e038bea71d30d808c7d98cb3bf7268a95bf5081b6533836040516103369291906107e3565b60405180910390a15050565b5f47905090565b5f5f5f3373ffffffffffffffffffffffffffffffffffffffff1673ffffffffffffffffffffffffffffffffffffffff1681526020019081526020015f2054905090565b5f73ffffffffffffffffffffffffffffffffffffffff163373ffffffffffffffffffffffffffffffffffffffff16036103fa576040517f08c379a00000000000000000000000000000000000000000000000000000000081526004016103f190610854565b60405180910390fd5b5f341161043c576040517f08c379a0000000000000000000000000000000000000000000000000000000008152600401610433906108bc565b60405180910390fd5b345f5f3373ffffffffffffffffffffffffffffffffffffffff1673ffffffffffffffffffffffffffffffffffffffff1681526020019081526020015f205f82825461048791906108da565b925050819055507fe1fffcc4923d04b559f4d29a8bfc6cda04eb5b0d3c460751c2402c5c5cc9109c33346040516104bf9291906107e3565b60405180910390a1565b5f5ffd5b5f819050919050565b6104df816104cd565b81146104e9575f5ffd5b50565b5f813590506104fa816104d6565b92915050565b5f60208284031215610515576105146104c9565b5b5f610522848285016104ec565b91505092915050565b610534816104cd565b82525050565b5f60208201905061054d5f83018461052b565b92915050565b5f82825260208201905092915050565b7f496e76616c6964204164647265737300000000000000000000000000000000005f82015250565b5f610597600f83610553565b91506105a282610563565b602082019050919050565b5f6020820190508181035f8301526105c48161058b565b9050919050565b7f496e76616c696420616d6f756e740000000000000000000000000000000000005f82015250565b5f6105ff600e83610553565b915061060a826105cb565b602082019050919050565b5f6020820190508181035f83015261062c816105f3565b9050919050565b7f496e73756666696369656e742066756e647300000000000000000000000000005f82015250565b5f610667601283610553565b915061067282610633565b602082019050919050565b5f6020820190508181035f8301526106948161065b565b9050919050565b7f4e487b71000000000000000000000000000000000000000000000000000000005f52601160045260245ffd5b5f6106d2826104cd565b91506106dd836104cd565b92508282039050818111156106f5576106f461069b565b5b92915050565b5f81905092915050565b50565b5f6107135f836106fb565b915061071e82610705565b5f82019050919050565b5f61073282610708565b9150819050919050565b7f5472616e73666572206661696c656400000000000000000000000000000000005f82015250565b5f610770600f83610553565b915061077b8261073c565b602082019050919050565b5f6020820190508181035f83015261079d81610764565b9050919050565b5f73ffffffffffffffffffffffffffffffffffffffff82169050919050565b5f6107cd826107a4565b9050919050565b6107dd816107c3565b82525050565b5f6040820190506107f65f8301856107d4565b610803602083018461052b565b9392505050565b7f496e76616c6964206164647265737300000000000000000000000000000000005f82015250565b5f61083e600f83610553565b91506108498261080a565b602082019050919050565b5f6020820190508181035f83015261086b81610832565b9050919050565b7f416d6f756e74206d7573742062652067726561746572207468616e207a65726f5f82015250565b5f6108a6602083610553565b91506108b182610872565b602082019050919050565b5f6020820190508181035f8301526108d38161089a565b9050919050565b5f6108e4826104cd565b91506108ef836104cd565b92508282019050808211156109075761090661069b565b5b9291505056fea2646970667358221220003e4b0814dfa5a38ea93288b4ef73b3266c5db8ae28d106e922116f9d0c612b64736f6c63430008210033","linkReferences":{}},"methodIdentifiers":{"deposit()":"d0e30db0","depositBalance()":"61bc1a49","getUserSavings()":"690e2ea9","withdraw(uint256)":"2e1a7d4d"},"id":18}